{
  "contractName": "Vote",
  "abi": [
    {
      "constant": true,
      "inputs": [],
      "name": "getCandidateCount",
      "outputs": [
        {
          "name": "",
          "type": "uint256"
        }
      ],
      "payable": false,
      "stateMutability": "view",
      "type": "function"
    },
    {
      "constant": true,
      "inputs": [],
      "name": "getNumOfVoters",
      "outputs": [
        {
          "name": "",
          "type": "uint256"
        }
      ],
      "payable": false,
      "stateMutability": "view",
      "type": "function"
    },
    {
      "constant": false,
      "inputs": [
        {
          "name": "candidate",
          "type": "bytes32"
        }
      ],
      "name": "voteCandidate",
      "outputs": [],
      "payable": false,
      "stateMutability": "nonpayable",
      "type": "function"
    },
    {
      "constant": true,
      "inputs": [
        {
          "name": "candidate",
          "type": "bytes32"
        }
      ],
      "name": "getCandidateVotes",
      "outputs": [
        {
          "name": "",
          "type": "bytes32"
        },
        {
          "name": "",
          "type": "uint256"
        }
      ],
      "payable": false,
      "stateMutability": "view",
      "type": "function"
    },
    {
      "constant": true,
      "inputs": [],
      "name": "getSenderVoteCount",
      "outputs": [
        {
          "name": "",
          "type": "uint256"
        }
      ],
      "payable": false,
      "stateMutability": "view",
      "type": "function"
    },
    {
      "inputs": [
        {
          "name": "_candidateNames",
          "type": "bytes32[]"
        }
      ],
      "payable": false,
      "stateMutability": "nonpayable",
      "type": "constructor"
    },
    {
      "anonymous": false,
      "inputs": [
        {
          "indexed": false,
          "name": "",
          "type": "address"
        },
        {
          "indexed": false,
          "name": "",
          "type": "bytes32"
        },
        {
          "indexed": false,
          "name": "",
          "type": "uint256"
        },
        {
          "indexed": false,
          "name": "",
          "type": "uint256"
        }
      ],
      "name": "Voted",
      "type": "event"
    }
  ],
  "bytecode": "0x6060604052341561000f57600080fd5b60405161050f38038061050f833981016040528080518201919050508060019080519060200190610041929190610089565b5033600360006101000a81548173ffffffffffffffffffffffffffffffffffffffff021916908373ffffffffffffffffffffffffffffffffffffffff16021790555050610101565b8280548282559060005260206000209081019282156100cb579160200282015b828111156100ca5782518290600019169055916020019190600101906100a9565b5b5090506100d891906100dc565b5090565b6100fe91905b808211156100fa5760008160009055506001016100e2565b5090565b90565b6103ff806101106000396000f30060606040526004361061006d576000357c0100000000000000000000000000000000000000000000000000000000900463ffffffff16806330a563471461007257806365fc783c1461009b578063831b7503146100c4578063a656234f146100eb578063d04ff2b114610135575b600080fd5b341561007d57600080fd5b61008561015e565b6040518082815260200191505060405180910390f35b34156100a657600080fd5b6100ae61016b565b6040518082815260200191505060405180910390f35b34156100cf57600080fd5b6100e9600480803560001916906020019091905050610175565b005b34156100f657600080fd5b6101106004808035600019169060200190919050506102e8565b6040518083600019166000191681526020018281526020019250505060405180910390f35b341561014057600080fd5b61014861038c565b6040518082815260200191505060405180910390f35b6000600180549050905090565b6000600454905090565b600160008083600019166000191681526020019081526020016000206001016000828254019250508190555080600080836000191660001916815260200190815260200160002060000181600019169055506001600260003373ffffffffffffffffffffffffffffffffffffffff1673ffffffffffffffffffffffffffffffffffffffff1681526020019081526020016000206000828254019250508190555060016004600082825401925050819055507fdaf7488030e3c397e3ccb09e585d2b51afb0b3c477c5c2e392ee6ebcbecdf37033600080846000191660001916815260200190815260200160002060000154600080856000191660001916815260200190815260200160002060010154600454604051808573ffffffffffffffffffffffffffffffffffffffff1673ffffffffffffffffffffffffffffffffffffffff168152602001846000191660001916815260200183815260200182815260200194505050505060405180910390a150565b600080600360009054906101000a900473ffffffffffffffffffffffffffffffffffffffff1673ffffffffffffffffffffffffffffffffffffffff163373ffffffffffffffffffffffffffffffffffffffff1614151561034757600080fd5b60008084600019166000191681526020019081526020016000206000015460008085600019166000191681526020019081526020016000206001015491509150915091565b6000600260003373ffffffffffffffffffffffffffffffffffffffff1673ffffffffffffffffffffffffffffffffffffffff168152602001908152602001600020549050905600a165627a7a72305820bb6079cf0d9a8e5d5e4c264910e7b93bfa3afed6589198589aaa9452d8fbf9bd0029",
  "source": "pragma solidity ^0.4.14;\n\ncontract Vote {\n    struct CandidateEntity {\n        bytes32 name;\n        uint votes;\n        // Can add more information here\n    }\n    mapping (bytes32 => CandidateEntity) voteCount;\n    bytes32[] candidateNames;\n    mapping (address => uint) senderVotes;\n    address owner;\n    uint numOfVoters;\n\n    function Vote(bytes32[] _candidateNames) {\n        candidateNames = _candidateNames;\n        owner = msg.sender;\n    }\n\n    // modifier isValidCandidate(bytes32 candidate) {\n    //     for (uint i = 0; i < candidateNames.length; i++) {\n    //         if (sha3(candidateNames[i]) == sha3(candidate)) {\n    //            _; \n    //         }\n    //     }\n    // }\n\n    // Sender, Candidate, candidate votes, total votes\n    event Voted(address, bytes32, uint, uint);\n\n    // To vote for a candidate\n    // function voteCandidate(bytes32 candidate) isValidCandidate(candidate) public {\n    function voteCandidate(bytes32 candidate) public {\n        voteCount[candidate].votes += 1;\n        voteCount[candidate].name = candidate;\n        senderVotes[msg.sender] += 1;\n        numOfVoters += 1;\n        Voted(msg.sender, voteCount[candidate].name, voteCount[candidate].votes, numOfVoters);\n    }\n\n    modifier isOwner {\n        require(msg.sender == owner);\n        _;\n    }\n\n    function getSenderVoteCount() constant returns (uint) {\n        return senderVotes[msg.sender];\n    }\n\n    function getCandidateVotes(bytes32 candidate) isOwner constant returns (bytes32, uint) {\n        return (voteCount[candidate].name, voteCount[candidate].votes);\n    }\n\n    function getCandidateCount() constant returns (uint) {\n        return candidateNames.length;\n    }\n\n    function getNumOfVoters() constant returns (uint) {\n        return numOfVoters;\n    }\n}",
  "sourcePath": "/home/zander/Projects/blockchain-weekathon/voterchain/contracts/contracts/Voter.sol",
  "compiler": {
    "name": "solc",
    "version": "0.4.18+commit.9cf6e910.Emscripten.clang"
  },
  "schemaVersion": "1.0.1",
  "updatedAt": "2017-11-05T19:40:30.958Z"
}